:100000000C9434000C943E000C943E000C943E0082
:100010000C943E000C943E000C943E000C943E0068
:100020000C943E000C943E000C943E000C943E0058
:100030000C943E000C943E000C943E000C943E0048
:100040000C943E000C943E000C943E000C943E0038
:100050000C943E000C943E000C943E000C943E0028
:100060000C943E000C943E0011241FBECFEFD8E04C
:10007000DEBFCDBF0E9451000C9463000C940000C1
:10008000209A3D9A8AB18FEF8AB90895289A459AA5
:100090008BB18FEF8BB90895289845988BB11BB819
:1000A0000895F8940E9440000E94460084E690E083
:1000B000EFE3FCE93197F1F700C000000197C1F7C9
:0A00C0000E944C00F1CFF894FFCF2E
:00000001FF
