:100000000C9434000C943E000C943E000C943E0082
:100010000C943E000C943E000C943E000C943E0068
:100020000C943E000C943E000C943E000C943E0058
:100030000C943E000C943E000C943E000C943E0048
:100040000C943E000C943E000C943E000C943E0038
:100050000C943E000C943E000C943E000C943E0028
:100060000C943E000C943E0011241FBECFEFD8E04C
:10007000DEBFCDBF0E944E000C9456000C940000D1
:1000800081E085B98FEF8BB980E188B9089581E06F
:1000900084B98FEF8AB980E187B908950E94400042
:1000A0000E94470083B7816083BFFCCFF894FFCFE5
:00000001FF
